{
  "contractName": "TicTacToe",
  "abi": [
    {
      "constant": true,
      "inputs": [],
      "name": "player2",
      "outputs": [
        {
          "name": "",
          "type": "address"
        }
      ],
      "payable": false,
      "stateMutability": "view",
      "type": "function"
    },
    {
      "constant": true,
      "inputs": [],
      "name": "boardSize",
      "outputs": [
        {
          "name": "",
          "type": "uint8"
        }
      ],
      "payable": false,
      "stateMutability": "view",
      "type": "function"
    },
    {
      "constant": true,
      "inputs": [],
      "name": "gameCost",
      "outputs": [
        {
          "name": "",
          "type": "uint256"
        }
      ],
      "payable": false,
      "stateMutability": "view",
      "type": "function"
    },
    {
      "constant": true,
      "inputs": [],
      "name": "player1",
      "outputs": [
        {
          "name": "",
          "type": "address"
        }
      ],
      "payable": false,
      "stateMutability": "view",
      "type": "function"
    },
    {
      "inputs": [],
      "payable": true,
      "stateMutability": "payable",
      "type": "constructor"
    },
    {
      "anonymous": false,
      "inputs": [
        {
          "indexed": false,
          "name": "player",
          "type": "address"
        }
      ],
      "name": "PlayerJoined",
      "type": "event"
    },
    {
      "anonymous": false,
      "inputs": [
        {
          "indexed": false,
          "name": "player",
          "type": "address"
        }
      ],
      "name": "NextPlayer",
      "type": "event"
    },
    {
      "anonymous": false,
      "inputs": [
        {
          "indexed": false,
          "name": "winner",
          "type": "address"
        }
      ],
      "name": "GameOverWithWin",
      "type": "event"
    },
    {
      "anonymous": false,
      "inputs": [],
      "name": "GameOverWithDraw",
      "type": "event"
    },
    {
      "anonymous": false,
      "inputs": [
        {
          "indexed": false,
          "name": "receiver",
          "type": "address"
        },
        {
          "indexed": false,
          "name": "amountInWei",
          "type": "uint256"
        }
      ],
      "name": "PayoutSuccess",
      "type": "event"
    },
    {
      "constant": false,
      "inputs": [],
      "name": "joinGame",
      "outputs": [],
      "payable": true,
      "stateMutability": "payable",
      "type": "function"
    },
    {
      "constant": true,
      "inputs": [],
      "name": "getBoard",
      "outputs": [
        {
          "name": "",
          "type": "address[3][3]"
        }
      ],
      "payable": false,
      "stateMutability": "view",
      "type": "function"
    },
    {
      "constant": false,
      "inputs": [],
      "name": "withdrawWin",
      "outputs": [],
      "payable": false,
      "stateMutability": "nonpayable",
      "type": "function"
    },
    {
      "constant": false,
      "inputs": [],
      "name": "emergencyCashout",
      "outputs": [],
      "payable": false,
      "stateMutability": "nonpayable",
      "type": "function"
    },
    {
      "constant": false,
      "inputs": [
        {
          "name": "x",
          "type": "uint8"
        },
        {
          "name": "y",
          "type": "uint8"
        }
      ],
      "name": "setStone",
      "outputs": [],
      "payable": false,
      "stateMutability": "nonpayable",
      "type": "function"
    }
  ],
  "bytecode": "0x608060405260036000806101000a81548160ff021916908360ff16021790555060b4600e5533600a60006101000a81548173ffffffffffffffffffffffffffffffffffffffff021916908373ffffffffffffffffffffffffffffffffffffffff16021790555067016345785d8a00003414151561007b57600080fd5b600e544201600f819055506116cc806100956000396000f300608060405260043610610099576000357c0100000000000000000000000000000000000000000000000000000000900463ffffffff168063216db3c21461009e5780633264a34b146100b557806359a5f12d1461012b5780637d3f907414610182578063c51d69f4146101bf578063cab896dc146101f0578063d30895e41461021b578063d4f77b1c14610272578063fb8155031461027c575b600080fd5b3480156100aa57600080fd5b506100b3610293565b005b3480156100c157600080fd5b506100ca6102c8565b604051808260036000925b8184101561011b5782846020020151600360200280838360005b8381101561010a5780820151818401526020810190506100ef565b5050505090500192600101926100d5565b9250505091505060405180910390f35b34801561013757600080fd5b50610140610381565b604051808273ffffffffffffffffffffffffffffffffffffffff1673ffffffffffffffffffffffffffffffffffffffff16815260200191505060405180910390f35b34801561018e57600080fd5b506101bd600480360381019080803560ff169060200190929190803560ff1690602001909291905050506103a7565b005b3480156101cb57600080fd5b506101d4610c5d565b604051808260ff1660ff16815260200191505060405180910390f35b3480156101fc57600080fd5b50610205610c6f565b6040518082815260200191505060405180910390f35b34801561022757600080fd5b50610230610c7b565b604051808273ffffffffffffffffffffffffffffffffffffffff1673ffffffffffffffffffffffffffffffffffffffff16815260200191505060405180910390f35b61027a610ca1565b005b34801561028857600080fd5b50610291610f65565b005b42600f541015156102a357600080fd5b600060029054906101000a900460ff1615156102be57600080fd5b6102c66111e9565b565b6102d061164e565b6001600380602002604051908101604052809291906000905b8282101561037857838260030201600380602002604051908101604052809291908260038015610364576020028201915b8160009054906101000a900473ffffffffffffffffffffffffffffffffffffffff1673ffffffffffffffffffffffffffffffffffffffff168152602001906001019080831161031a575b5050505050815260200190600101906102e9565b50505050905090565b600b60009054906101000a900473ffffffffffffffffffffffffffffffffffffffff1681565b60008073ffffffffffffffffffffffffffffffffffffffff1660018460ff166003811015156103d257fe5b600302018360ff166003811015156103e657fe5b0160009054906101000a900473ffffffffffffffffffffffffffffffffffffffff1673ffffffffffffffffffffffffffffffffffffffff1614151561042a57600080fd5b42600f5411151561043a57600080fd5b600060029054906101000a900460ff16151561045257fe5b6000809054906101000a900460ff1660ff168360ff1610151561047157fe5b6000809054906101000a900460ff1660ff168260ff1610151561049057fe5b601060009054906101000a900473ffffffffffffffffffffffffffffffffffffffff1673ffffffffffffffffffffffffffffffffffffffff163373ffffffffffffffffffffffffffffffffffffffff161415156104ec57600080fd5b3360018460ff166003811015156104ff57fe5b600302018360ff1660038110151561051357fe5b0160006101000a81548173ffffffffffffffffffffffffffffffffffffffff021916908373ffffffffffffffffffffffffffffffffffffffff1602179055506000600181819054906101000a900460ff168092919060010191906101000a81548160ff021916908360ff16021790555050600e544201600f81905550600090505b6000809054906101000a900460ff1660ff168160ff1610156106af57601060009054906101000a900473ffffffffffffffffffffffffffffffffffffffff1673ffffffffffffffffffffffffffffffffffffffff1660018260ff166003811015156105fb57fe5b600302018360ff1660038110151561060f57fe5b0160009054906101000a900473ffffffffffffffffffffffffffffffffffffffff1673ffffffffffffffffffffffffffffffffffffffff16141515610653576106af565b60016000809054906101000a900460ff160360ff168160ff1614156106a25761069d601060009054906101000a900473ffffffffffffffffffffffffffffffffffffffff16611466565b610c58565b8080600101915050610594565b600090505b6000809054906101000a900460ff1660ff168160ff1610156107cf57601060009054906101000a900473ffffffffffffffffffffffffffffffffffffffff1673ffffffffffffffffffffffffffffffffffffffff1660018460ff1660038110151561071b57fe5b600302018260ff1660038110151561072f57fe5b0160009054906101000a900473ffffffffffffffffffffffffffffffffffffffff1673ffffffffffffffffffffffffffffffffffffffff16141515610773576107cf565b60016000809054906101000a900460ff160360ff168160ff1614156107c2576107bd601060009054906101000a900473ffffffffffffffffffffffffffffffffffffffff16611466565b610c58565b80806001019150506106b4565b8160ff168360ff1614156108fe57600090505b6000809054906101000a900460ff1660ff168160ff1610156108fd57601060009054906101000a900473ffffffffffffffffffffffffffffffffffffffff1673ffffffffffffffffffffffffffffffffffffffff1660018260ff1660038110151561084957fe5b600302018260ff1660038110151561085d57fe5b0160009054906101000a900473ffffffffffffffffffffffffffffffffffffffff1673ffffffffffffffffffffffffffffffffffffffff161415156108a1576108fd565b60016000809054906101000a900460ff160360ff168160ff1614156108f0576108eb601060009054906101000a900473ffffffffffffffffffffffffffffffffffffffff16611466565b610c58565b80806001019150506107e2565b5b60016000809054906101000a900460ff160360ff1682840160ff161415610a5357600090505b6000809054906101000a900460ff1660ff168160ff161015610a5257601060009054906101000a900473ffffffffffffffffffffffffffffffffffffffff1673ffffffffffffffffffffffffffffffffffffffff1660018260ff1660038110151561098b57fe5b600302018260016000809054906101000a900460ff16030360ff166003811015156109b257fe5b0160009054906101000a900473ffffffffffffffffffffffffffffffffffffffff1673ffffffffffffffffffffffffffffffffffffffff161415156109f657610a52565b60016000809054906101000a900460ff160360ff168160ff161415610a4557610a40601060009054906101000a900473ffffffffffffffffffffffffffffffffffffffff16611466565b610c58565b8080600101915050610924565b5b60026000809054906101000a900460ff160a60ff16600060019054906101000a900460ff1660ff161415610a8e57610a896111e9565b610c58565b600a60009054906101000a900473ffffffffffffffffffffffffffffffffffffffff1673ffffffffffffffffffffffffffffffffffffffff16601060009054906101000a900473ffffffffffffffffffffffffffffffffffffffff1673ffffffffffffffffffffffffffffffffffffffff161415610b6e57600b60009054906101000a900473ffffffffffffffffffffffffffffffffffffffff16601060006101000a81548173ffffffffffffffffffffffffffffffffffffffff021916908373ffffffffffffffffffffffffffffffffffffffff160217905550610bd2565b600a60009054906101000a900473ffffffffffffffffffffffffffffffffffffffff16601060006101000a81548173ffffffffffffffffffffffffffffffffffffffff021916908373ffffffffffffffffffffffffffffffffffffffff1602179055505b7f637351f91da430278368fb3e486c8c3da47b2e6ce4d28b2c404cb044702ca7e1601060009054906101000a900473ffffffffffffffffffffffffffffffffffffffff16604051808273ffffffffffffffffffffffffffffffffffffffff1673ffffffffffffffffffffffffffffffffffffffff16815260200191505060405180910390a15b505050565b6000809054906101000a900460ff1681565b67016345785d8a000081565b600a60009054906101000a900473ffffffffffffffffffffffffffffffffffffffff1681565b600073ffffffffffffffffffffffffffffffffffffffff16600b60009054906101000a900473ffffffffffffffffffffffffffffffffffffffff1673ffffffffffffffffffffffffffffffffffffffff16141515610cfb57fe5b6001600060026101000a81548160ff02191690831515021790555067016345785d8a000034141515610d2c57600080fd5b33600b60006101000a81548173ffffffffffffffffffffffffffffffffffffffff021916908373ffffffffffffffffffffffffffffffffffffffff1602179055507f31e760aa525306aba638a784082a013b6a1cc0a9a1789f3f22281c0453b10b1f600b60009054906101000a900473ffffffffffffffffffffffffffffffffffffffff16604051808273ffffffffffffffffffffffffffffffffffffffff1673ffffffffffffffffffffffffffffffffffffffff16815260200191505060405180910390a16000600243811515610e0057fe5b061415610e6f57600b60009054906101000a900473ffffffffffffffffffffffffffffffffffffffff16601060006101000a81548173ffffffffffffffffffffffffffffffffffffffff021916908373ffffffffffffffffffffffffffffffffffffffff160217905550610ed3565b600a60009054906101000a900473ffffffffffffffffffffffffffffffffffffffff16601060006101000a81548173ffffffffffffffffffffffffffffffffffffffff021916908373ffffffffffffffffffffffffffffffffffffffff1602179055505b600e544201600f819055507f637351f91da430278368fb3e486c8c3da47b2e6ce4d28b2c404cb044702ca7e1601060009054906101000a900473ffffffffffffffffffffffffffffffffffffffff16604051808273ffffffffffffffffffffffffffffffffffffffff1673ffffffffffffffffffffffffffffffffffffffff16815260200191505060405180910390a1565b600a60009054906101000a900473ffffffffffffffffffffffffffffffffffffffff1673ffffffffffffffffffffffffffffffffffffffff163373ffffffffffffffffffffffffffffffffffffffff1614156110d3576000600c54111515610fcc57600080fd5b6000600c81905550600a60009054906101000a900473ffffffffffffffffffffffffffffffffffffffff1673ffffffffffffffffffffffffffffffffffffffff166108fc600c549081150290604051600060405180830381858888f1935050505015801561103e573d6000803e3d6000fd5b507f2a44162a2d5223e37cacacc3f626dcfee1396e0be3616534c5c7b718f786b673600a60009054906101000a900473ffffffffffffffffffffffffffffffffffffffff16600c54604051808373ffffffffffffffffffffffffffffffffffffffff1673ffffffffffffffffffffffffffffffffffffffff1681526020018281526020019250505060405180910390a16111e7565b6000600d541115156110e457600080fd5b6000600d81905550600b60009054906101000a900473ffffffffffffffffffffffffffffffffffffffff1673ffffffffffffffffffffffffffffffffffffffff166108fc600d549081150290604051600060405180830381858888f19350505050158015611156573d6000803e3d6000fd5b507f2a44162a2d5223e37cacacc3f626dcfee1396e0be3616534c5c7b718f786b673600b60009054906101000a900473ffffffffffffffffffffffffffffffffffffffff16600d54604051808373ffffffffffffffffffffffffffffffffffffffff1673ffffffffffffffffffffffffffffffffffffffff1681526020018281526020019250505060405180910390a15b565b600080600060026101000a81548160ff0219169083151502179055507f2207d46a2ba0f2acda06e9a222b40fd004e385738b3f868e63b2c0bfe4bc094c60405160405180910390a160023073ffffffffffffffffffffffffffffffffffffffff163181151561125457fe5b04905060001515600a60009054906101000a900473ffffffffffffffffffffffffffffffffffffffff1673ffffffffffffffffffffffffffffffffffffffff166108fc839081150290604051600060405180830381858888f19350505050151514156112cf5780600c6000828254019250508190555061135d565b7f2a44162a2d5223e37cacacc3f626dcfee1396e0be3616534c5c7b718f786b673600a60009054906101000a900473ffffffffffffffffffffffffffffffffffffffff1682604051808373ffffffffffffffffffffffffffffffffffffffff1673ffffffffffffffffffffffffffffffffffffffff1681526020018281526020019250505060405180910390a15b60001515600b60009054906101000a900473ffffffffffffffffffffffffffffffffffffffff1673ffffffffffffffffffffffffffffffffffffffff166108fc839081150290604051600060405180830381858888f19350505050151514156113d55780600d60008282540192505081905550611463565b7f2a44162a2d5223e37cacacc3f626dcfee1396e0be3616534c5c7b718f786b673600b60009054906101000a900473ffffffffffffffffffffffffffffffffffffffff1682604051808373ffffffffffffffffffffffffffffffffffffffff1673ffffffffffffffffffffffffffffffffffffffff1681526020018281526020019250505060405180910390a15b50565b600080600060026101000a81548160ff0219169083151502179055507f8245a3876d42d9b0bdb7f24184c03fc24e3d8a079f492b1ec9ceae70b366edf982604051808273ffffffffffffffffffffffffffffffffffffffff1673ffffffffffffffffffffffffffffffffffffffff16815260200191505060405180910390a13073ffffffffffffffffffffffffffffffffffffffff16319050600115158273ffffffffffffffffffffffffffffffffffffffff166108fc3073ffffffffffffffffffffffffffffffffffffffff16319081150290604051600060405180830381858888f1935050505015151415156115c757600a60009054906101000a900473ffffffffffffffffffffffffffffffffffffffff1673ffffffffffffffffffffffffffffffffffffffff168273ffffffffffffffffffffffffffffffffffffffff1614156115ba5780600c819055506115c2565b80600d819055505b61164a565b7f2a44162a2d5223e37cacacc3f626dcfee1396e0be3616534c5c7b718f786b673823073ffffffffffffffffffffffffffffffffffffffff1631604051808373ffffffffffffffffffffffffffffffffffffffff1673ffffffffffffffffffffffffffffffffffffffff1681526020018281526020019250505060405180910390a15b5050565b610120604051908101604052806003905b61166761167d565b81526020019060019003908161165f5790505090565b6060604051908101604052806003906020820280388339808201915050905050905600a165627a7a723058207d725f0993247f7a48feac8a751a8a9eb8bfeda608bd77276c8ef28be2fd0f9c0029",
  "source": "pragma solidity ^0.4.18;\n\ncontract TicTacToe {\n    \n    uint constant public gameCost = 0.1 ether;\n    \n    uint8 public boardSize = 3;\n    uint8 movesCounter;\n    \n    bool gameActive;\n    \n    address[3][3] board;\n    \n    address public player1;\n    address public player2;\n    \n    uint balanceToWithdrawPlayer1;\n    uint balanceToWithdrawPlayer2;\n    \n    uint timeToReact = 3 minutes;\n    uint gameValidUntil;\n    \n    address activePlayer;\n    \n    event PlayerJoined(address player);\n    event NextPlayer(address player);\n    event GameOverWithWin(address winner);\n    event GameOverWithDraw();\n    event PayoutSuccess(address receiver, uint amountInWei);\n    \n    function TicTacToe() public payable {\n        player1 = msg.sender;\n        require(msg.value == gameCost);\n        gameValidUntil = now+timeToReact;\n    }\n    \n    function joinGame() public payable{\n        assert(player2 == address(0));\n        gameActive = true;\n        require(msg.value == gameCost);\n        player2 = msg.sender;\n        PlayerJoined(player2);\n        if(block.number % 2 == 0) {\n            activePlayer = player2;\n        } else {\n            activePlayer = player1;\n        }\n        \n        gameValidUntil = now + timeToReact;\n        \n        NextPlayer(activePlayer);\n    }\n    \n    function getBoard() public view returns(address[3][3]) {\n        return board;\n    }\n    \n    function setWinner(address player) private {\n        gameActive = false;\n        //emit an event\n        GameOverWithWin(player);\n        uint balanceToPayOut = this.balance;\n        if(player.send(this.balance) != true) {\n            if(player == player1) {\n                balanceToWithdrawPlayer1 = balanceToPayOut;\n            } else {\n                balanceToWithdrawPlayer2 = balanceToPayOut;\n            }\n        } else {\n            PayoutSuccess(player, this.balance);\n        }\n        //transfer money to the winner\n    }\n    \n    function withdrawWin() public {\n        if(msg.sender == player1) {\n            require(balanceToWithdrawPlayer1 > 0);\n            balanceToWithdrawPlayer1 = 0;\n            player1.transfer(balanceToWithdrawPlayer1);\n            PayoutSuccess(player1, balanceToWithdrawPlayer1);\n        } else {\n            require(balanceToWithdrawPlayer2 > 0);\n            balanceToWithdrawPlayer2 = 0;\n            player2.transfer(balanceToWithdrawPlayer2);\n            PayoutSuccess(player2, balanceToWithdrawPlayer2);\n        }\n    }\n    \n    function setDraw() private {\n        gameActive = false;\n        GameOverWithDraw();\n        \n        uint balanceToPayOut = this.balance/2;\n        \n        if(player1.send(balanceToPayOut) == false) {\n            balanceToWithdrawPlayer1 += balanceToPayOut;\n        } else {\n            PayoutSuccess(player1, balanceToPayOut);\n        }\n        if(player2.send(balanceToPayOut) == false){\n            balanceToWithdrawPlayer2 += balanceToPayOut;\n        } else {\n            PayoutSuccess(player2, balanceToPayOut);\n        }\n    }\n    \n    function emergencyCashout() public {\n        require(gameValidUntil < now);\n        require(gameActive);\n        setDraw();\n    }\n    \n    function setStone(uint8 x, uint8 y) public {\n        require(board[x][y] == address(0));\n        require(gameValidUntil > now);\n        assert(gameActive);\n        assert(x < boardSize);\n        assert(y < boardSize);\n        require(msg.sender == activePlayer);\n        board[x][y] = msg.sender;\n        movesCounter++;\n        gameValidUntil = now + timeToReact;\n        \n        for(uint8 i = 0; i < boardSize; i++) {\n            if(board[i][y] != activePlayer) {\n                break;\n            }\n            //win\n            if(i == boardSize - 1) {\n                //winner\n                setWinner(activePlayer);\n                return;\n            }\n        }\n        for(i = 0; i < boardSize; i++) {\n            if(board[x][i] != activePlayer) {\n                break;\n            }\n            //win\n            \n            if(i == boardSize - 1) {\n                //winner\n                setWinner(activePlayer);\n                return;\n            }\n        }\n        \n        //diagonale\n        if(x == y) {\n            for(i = 0; i < boardSize; i++) {\n                if(board[i][i] != activePlayer) {\n                    break;\n                }\n                //win\n                if(i == boardSize - 1) {\n                    //winner\n                    setWinner(activePlayer);\n                    return;\n                }\n            }\n        }\n        \n        //anti-diagonale\n        if((x+y) == boardSize-1) {\n            for(i = 0; i < boardSize; i++) {\n                if(board[i][(boardSize-1)-i] != activePlayer) {\n                    break;\n                }\n                //win\n                \n                if(i == boardSize - 1) {\n                    //winner\n                    setWinner(activePlayer);\n                    return;\n                }\n            }\n        }\n        \n        //draw\n        if(movesCounter == (boardSize**2)) {\n            //draw\n            setDraw();\n            return;\n        }\n        \n        if(activePlayer == player1) {\n            activePlayer = player2;\n        } else {\n            activePlayer = player1;\n        }\n        NextPlayer(activePlayer);\n    }\n}",
  "sourcePath": "/Users/BlueJay/Documents/Projects/THEBLOCKHOUSE/tictactoe/contracts/TicTacToe.sol",
  "compiler": {
    "name": "solc",
    "version": "0.4.24+commit.e67f0147.Emscripten.clang"
  },
  "schemaVersion": "2.0.1",
  "updatedAt": "2018-11-11T00:08:36.812Z"
}